:100000000C9456000C9475000C9475000C947500BB
:100010000C9475000C9475000C9475000C9475008C
:100020000C9475000C9475000C9475000C9475007C
:100030000C9475000C94E9010C9475000C947500F7
:100040000C9475000C9475000C9475000C9475005C
:100050000C9475000C9475000C9475000C9475004C
:100060000C9475000C9475000C9475000C9475003C
:100070000C9475000C9475000C9475000C9475002C
:100080000C9475000C9475000C94750093029F02FB
:10009000E102EA0233033C0385038C031504BD032C
:1000A000CA031504E60315040204150411241FBE37
:1000B000CFEFD0E4DEBFCDBF11E0A0E0B1E0EAECCD
:1000C000F8E000E00BBF02C007900D92A231B1072B
:1000D000D9F721E0A2E1B1E001C01D92AA31B20737
:1000E000E1F70E941A040C9463040C940000CF936F
:1000F000DF93CDB7DEB781E00E949E000000DF9164
:10010000CF910895CF93DF93CDB7DEB784E690E02B
:100110000E94420188E30E949E0086E00E949E00A9
:100120008FE00E949E0081E00E949E008AE090E0A5
:100130000E9442010000DF91CF910895CF93DF9399
:100140001F92CDB7DEB789838BE290E02BE230E0DF
:10015000F90120812F7BFC01208388E290E0298136
:10016000FC0120838BE290E02BE230E0F90120815A
:100170002068FC01208300008BE290E02BE230E05D
:10018000F90120812F77FC01208382E090E00E941A
:10019000420100000F90DF91CF910895CF93DF933C
:1001A0001F92CDB7DEB789838BE290E02BE230E07F
:1001B000F90120812064FC01208388E290E02981FC
:1001C000FC0120838BE290E02BE230E0F9012081FA
:1001D0002068FC01208300008BE290E02BE230E0FD
:1001E000F90120812F77FC01208381E090E00E94BB
:1001F000420100000F90DF91CF910895CF93DF93DC
:1002000000D000D0CDB7DEB78A837C836B830E9499
:1002100077008A81898311C0898191E0980F998341
:100220000E942B018B819C819C012F5F3F4F3C835F
:100230002B83FC0180810E94CE008B819C81FC017C
:100240008081882349F700000F900F900F900F9046
:10025000DF91CF910895CF93DF931F92CDB7DEB793
:1002600089838981813128F4898181580E949E0087
:1002700004C0898181550E949E0000000F90DF918B
:10028000CF910895CF93DF9300D000D000D0CDB7A9
:10029000DEB79E838D831A82198213C01C821B8253
:1002A00006C000008B819C8101969C838B838B818F
:1002B0009C8187309340ACF389819A8101969A831F
:1002C000898329813A818D819E812817390734F3EA
:1002D000000026960FB6F894DEBF0FBECDBFDF91AB
:1002E000CF910895CF93DF9300D01F92CDB7DEB7A3
:1002F00089837B836A8389818A3031F48A819B81F7
:10030000BC018DE00E94720180EC90E0FC018081D4
:10031000882F90E080729927892BB1F386EC90E0CA
:100320002981FC01208380E090E00F900F900F90D6
:10033000DF91CF910895CF93DF93CDB7DEB781E8FA
:1003400090E02BE0FC01208388E890E02DE730E08E
:10035000FC01318320838FE690E022E0FC012083C2
:1003600084E890E0FC011182108280910E0190914E
:100370000F01A0911001B09111018093130190938E
:100380001401A0931501B09316018FE590E02FE5BD
:1003900030E0F90120812068FC0120830000DF911A
:1003A000CF910895CF93DF93CDB7DEB781E890E08A
:1003B000FC0110820000DF91CF910895CF93DF936D
:1003C000CDB7DEB781E0809312010000DF91CF91BD
:1003D00008951F920F9200905F000F9211240090D9
:1003E0005B000F922F933F934F935F936F937F9395
:1003F0008F939F93AF93BF93EF93FF93CF93DF932D
:10040000CDB7DEB78091130190911401A091150131
:10041000B09116010197A109B1098093130190933E
:100420001401A0931501B0931601809113019091CE
:100430001401A0911501B0911601892B8A2B8B2BE9
:1004400091F40E94DE0180910E0190910F01A09124
:100450001001B09111018093130190931401A093A6
:100460001501B09316010000DF91CF91FF91EF913C
:10047000BF91AF919F918F917F916F915F914F91BC
:100480003F912F910F9000925B000F9000925F00C0
:100490000F901F901895CF93DF9300D000D0CDB769
:1004A000DEB769837A838B839C8389819A81AB8150
:1004B000BC8180930E0190930F01A0931001B09323
:1004C000110180910E0190910F01A0911001B09146
:1004D00011018093130190931401A0931501B0931F
:1004E000160100000F900F900F900F90DF91CF91A9
:1004F0000895CF93DF93CDB7DEB780911701909128
:100500001801CC01A0E0B0E040E050E027E030E08E
:10051000841B950B2817390708F418C18A5B9F4F75
:10052000FC010C945A0485E290E027E0FC01208352
:1005300081E090E0909318018093170108C1109218
:10054000190180E290E0FC018081882F90E0809585
:10055000909583709927019739F482E090E0909309
:10056000180180931701F3C080E290E0FC018081C4
:10057000882F90E08095909583709927029739F4A1
:1005800084E090E09093180180931701E0C080E22E
:1005900090E0FC018081882F90E080959095837099
:1005A0009927039739F486E090E09093180180939F
:1005B0001701CDC081E090E090931801809317015E
:1005C000C6C01092190183E090E0909318018093C7
:1005D0001701BDC0809119018F5F8093190180E2DE
:1005E00090E0FC018081882F90E080959095837049
:1005F0009927892B39F481E090E09093180180933A
:100600001701A5C080E290E0FC018081882F90E076
:100610008095909583709927039739F486E090E050
:10062000909318018093170192C080E290E0FC0142
:100630008081882F90E0809590958370992701970D
:1006400059F4809119018B3038F082E090E090935A
:100650001801809317017BC083E090E0909318010C
:100660008093170174C01092190185E090E0909377
:100670001801809317016BC0809119018F5F8093DF
:10068000190180E290E0FC018081882F90E0809544
:10069000909583709927892B39F481E090E09093AD
:1006A00018018093170153C080E290E0FC01808123
:1006B000882F90E08095909583709927039739F45F
:1006C00086E090E0909318018093170140C080E28B
:1006D00090E0FC018081882F90E080959095837058
:1006E0009927029759F4809119018B3038F084E0F2
:1006F00090E0909318018093170129C085E090E065
:10070000909318018093170122C087E090E09093A6
:100710001801809317011BC080E290E0FC018081EA
:10072000882F90E08095909583709927892B39F4D4
:1007300081E090E0909318018093170108C087E052
:1007400090E0909318018093170101C00000809100
:10075000170190911801CC01A0E0B0E040E050E01A
:1007600027E030E0841B950B2817390708F45BC09D
:10077000825B9F4FFC010C945A040E94770081E039
:100780000E942B0183E290E0FC018081805D0E9449
:10079000CE004CC083E290E0FC018081893048F4B7
:1007A00085E290E023E230E0F90120812F5FFC0137
:1007B00020830E94770081E00E942B0183E290E079
:1007C000FC018081805D0E94CE0030C083E290E019
:1007D000FC018081882349F085E290E023E230E04B
:1007E000F90120812150FC0120830E94770081E0E3
:1007F0000E942B0183E290E0FC018081805D0E94D9
:10080000CE0014C085E290E0FC0110820E947700C7
:1008100081E00E942B0183E290E0FC018081805DF9
:100820000E94CE0003C0000001C000000000DF9164
:10083000CF910895CF93DF93CDB7DEB781E290E0FB
:10084000FC01108282E290E02FEFFC01208384E221
:1008500090E02FEFFC01208385E290E0FC01108204
:1008600087E290E02FEFFC01208388E290E0FC011A
:1008700010828AE290E02FEFFC0120838BE290E06F
:10088000FC01108210921801109217010E94820040
:1008900064E670E080E090E00E944B020E949B01C1
:1008A0000E9479020000809112018823E1F31092E6
:1008B0001201F6CFEE0FFF1F0024001C0BBE0790A5
:0A08C000F691E02D0994F894FFCFA3
:1008CA0000000002000000007201000000000100A8
:0208DA0000001C
:00000001FF
