:100000000C9446000C9465000C9465000C946500FB
:100010000C9465000C9465000C9465000C946500CC
:100020000C9465000C9465000C9465000C946500BC
:100030000C9465000C94D9010C9465000C94650037
:100040000C9465000C9465000C9465000C9465009C
:100050000C9465000C9465000C9465000C9465008C
:100060000C9465000C9465000C9465000C9465007C
:100070000C9465000C9465000C9465000C9465006C
:100080000C9465000C9465000C94650011241FBE4F
:10009000CFEFD0E4DEBFCDBF11E0A0E0B1E0EEEFE6
:1000A000F7E000E00BBF02C007900D92AC31B10742
:1000B000D9F721E0ACE1B1E001C01D92A532B20751
:1000C000E1F70E94BB030C94FD030C940000CF9356
:1000D000DF93CDB7DEB781E00E948E000000DF9194
:1000E000CF910895CF93DF93CDB7DEB784E690E04C
:1000F0000E94320188E30E948E0086E00E948E00FA
:100100008FE00E948E0081E00E948E008AE090E0E5
:100110000E9432010000DF91CF910895CF93DF93C9
:100120001F92CDB7DEB789838BE290E02BE230E0FF
:10013000F90120812F7BFC01208388E290E0298156
:10014000FC0120838BE290E02BE230E0F90120817A
:100150002068FC01208300008BE290E02BE230E07D
:10016000F90120812F77FC01208382E090E00E943A
:10017000320100000F90DF91CF910895CF93DF936C
:100180001F92CDB7DEB789838BE290E02BE230E09F
:10019000F90120812064FC01208388E290E029811C
:1001A000FC0120838BE290E02BE230E0F90120811A
:1001B0002068FC01208300008BE290E02BE230E01D
:1001C000F90120812F77FC01208381E090E00E94DB
:1001D000320100000F90DF91CF910895CF93DF930C
:1001E00000D000D0CDB7DEB78A837C836B830E94BA
:1001F00067008A81898311C0898191E0980F998372
:100200000E941B018B819C819C012F5F3F4F3C838F
:100210002B83FC0180810E94BE008B819C81FC01AC
:100220008081882349F700000F900F900F900F9066
:10023000DF91CF910895CF93DF931F92CDB7DEB7B3
:1002400089838981813128F4898181580E948E00B7
:1002500004C0898181550E948E0000000F90DF91BB
:10026000CF910895CF93DF9300D000D000D0CDB7C9
:10027000DEB79E838D831A82198213C01C821B8273
:1002800006C000008B819C8101969C838B838B81AF
:100290009C8187309340ACF389819A8101969A833F
:1002A000898329813A818D819E812817390734F30A
:1002B000000026960FB6F894DEBF0FBECDBFDF91CB
:1002C000CF910895CF93DF9300D01F92CDB7DEB7C3
:1002D00089837B836A8389818A3031F48A819B8117
:1002E000BC018DE00E94620180EC90E0FC01808105
:1002F000882F90E080729927892BB1F386EC90E0EB
:100300002981FC01208380E090E00F900F900F90F6
:10031000DF91CF910895CF93DF93CDB7DEB781E81A
:1003200090E02BE0FC01208388E890E02DE730E0AE
:10033000FC01318320838FE690E022E0FC012083E2
:1003400084E890E0FC011182108280910E0190916E
:100350000F01A0911001B091110180931D019093A4
:100360001E01A0931F01B09320018FE590E02FE5BF
:1003700030E0F90120812068FC0120830000DF913A
:10038000CF910895CF93DF93CDB7DEB781E890E0AA
:10039000FC0110820000DF91CF910895CF93DF938D
:1003A000CDB7DEB781E080931C010000DF91CF91D3
:1003B00008951F920F9200905F000F9211240090F9
:1003C0005B000F922F933F934F935F936F937F93B5
:1003D0008F939F93AF93BF93EF93FF93CF93DF934D
:1003E000CDB7DEB780911D0190911E01A0911F0134
:1003F000B09120010197A109B10980931D0190934B
:100400001E01A0931F01B093200180911D019091C6
:100410001E01A0911F01B0912001892B8A2B8B2BEB
:1004200091F40E94CE0180910E0190910F01A09154
:100430001001B091110180931D0190931E01A093B2
:100440001F01B09320010000DF91CF91FF91EF9148
:10045000BF91AF919F918F917F916F915F914F91DC
:100460003F912F910F9000925B000F9000925F00E0
:100470000F901F901895CF93DF9300D000D0CDB789
:10048000DEB769837A838B839C8389819A81AB8170
:10049000BC8180930E0190930F01A0931001B09343
:1004A000110180910E0190910F01A0911001B09166
:1004B000110180931D0190931E01A0931F01B09321
:1004C000200100000F900F900F900F90DF91CF91BF
:1004D0000895CF93DF93CDB7DEB78091230190913C
:1004E00024018230910509F440C08330910528F43D
:1004F000009779F0019709F1B0C08430910509F4B3
:1005000073C08430910508F457C0059709F484C07E
:10051000A4C085E08093210181E090E090932401C4
:10052000809323010E94670081E00E941B0180915B
:100530002101805D0E94BE0095C080E290E0FC0138
:100540008081882F90E081709927892B39F484E08D
:1005500090E0909324018093230184C082E090E096
:1005600090932401809323017DC080E290E0FC0100
:100570008081882F90E081709927892B39F484E05D
:1005800090E090932401809323016CC0809122011C
:10059000882F90E084709927892B39F081E090E0D2
:1005A00090932401809323015DC083E090E09093B9
:1005B00024018093230156C080E290E0FC018081F9
:1005C000882F90E081709927892B39F484E090E09E
:1005D000909324018093230145C082E090E09093A2
:1005E0002401809323013EC080E290E0FC018081E1
:1005F000882F90E081709927892B39F484E090E06E
:1006000090932401809323012DC085E090E0909386
:1006100024018093230126C080E290E0FC018081C8
:10062000882F90E081709927892B81F48091210196
:10063000893029F4109224011092230113C081E023
:1006400090E090932401809323010CC085E090E01A
:10065000909324018093230105C0109224011092ED
:1006600023010000809123019091240182309105A3
:10067000F1F08330910528F4009769F0019771F04B
:1006800076C08430910511F184309105B0F0059762
:1006900009F463C06CC01092220169C085E290E049
:1006A00021E0FC01208381E08093220160C085E28B
:1006B00090E022E0FC0120835AC085E290E024E033
:1006C000FC01208384E08093220151C083E290E00A
:1006D000FC018081882F90E0877099270297F1F4C0
:1006E000809121018930D0F4809121018F5F809326
:1006F000210180912101893031F462E171E081E0D2
:100700000E94EE0029C00E94670081E00E941B0148
:1007100080912101805D0E94BE001EC083E290E0B6
:10072000FC018081882F90E0877099270297F1F073
:10073000809121018823D1F0809121018150809303
:1007400021010E94670081E00E941B01809121012C
:10075000805D0E94BE000AC009C085E290E023E2ED
:1007600030E0F9012081FC01208301C0000000007D
:10077000DF91CF910895CF93DF93CDB7DEB781E2BC
:1007800090E0FC01108282E290E02FEFFC012083D8
:1007900084E290E02FEFFC01208385E290E0FC01F1
:1007A000108287E290E02FEFFC01208388E290E046
:1007B000FC0110828AE290E02FEFFC0120838BE2A3
:1007C00090E0FC01108210922401109223011092FB
:1007D00022016CE271E080E090E00E943B020E9406
:1007E0008B010E9472000E946902000080911C012E
:0E07F0008823E1F310921C01F6CFF894FFCF9E
:1007FE000000000200000000620100000000010085
:0C080E000000564943544F52592100008D
:00000001FF
